{
  "address": "0x57d7941bd5f1fb022b9ca2cb7750CdD64f990931",
  "abi": [
    {
      "anonymous": false,
      "inputs": [
        {
          "indexed": true,
          "internalType": "address",
          "name": "previousOwner",
          "type": "address"
        },
        {
          "indexed": true,
          "internalType": "address",
          "name": "newOwner",
          "type": "address"
        }
      ],
      "name": "OwnershipTransferred",
      "type": "event"
    },
    {
      "inputs": [],
      "name": "imageURIPostfix",
      "outputs": [
        {
          "internalType": "string",
          "name": "",
          "type": "string"
        }
      ],
      "stateMutability": "view",
      "type": "function"
    },
    {
      "inputs": [],
      "name": "nftContract",
      "outputs": [
        {
          "internalType": "contract ISemiNFT",
          "name": "",
          "type": "address"
        }
      ],
      "stateMutability": "view",
      "type": "function"
    },
    {
      "inputs": [],
      "name": "owner",
      "outputs": [
        {
          "internalType": "address",
          "name": "",
          "type": "address"
        }
      ],
      "stateMutability": "view",
      "type": "function"
    },
    {
      "inputs": [],
      "name": "percentEncodedImageBaseURI",
      "outputs": [
        {
          "internalType": "string",
          "name": "",
          "type": "string"
        }
      ],
      "stateMutability": "view",
      "type": "function"
    },
    {
      "inputs": [],
      "name": "renounceOwnership",
      "outputs": [],
      "stateMutability": "nonpayable",
      "type": "function"
    },
    {
      "inputs": [
        {
          "internalType": "string",
          "name": "str",
          "type": "string"
        }
      ],
      "name": "setImageURIPostfix",
      "outputs": [],
      "stateMutability": "nonpayable",
      "type": "function"
    },
    {
      "inputs": [
        {
          "internalType": "address",
          "name": "contractAddress",
          "type": "address"
        }
      ],
      "name": "setNftContract",
      "outputs": [],
      "stateMutability": "nonpayable",
      "type": "function"
    },
    {
      "inputs": [
        {
          "internalType": "string",
          "name": "uri",
          "type": "string"
        }
      ],
      "name": "setPercentEncodedImageBaseURI",
      "outputs": [],
      "stateMutability": "nonpayable",
      "type": "function"
    },
    {
      "inputs": [
        {
          "internalType": "string",
          "name": "uri",
          "type": "string"
        }
      ],
      "name": "setSoundBaseURI",
      "outputs": [],
      "stateMutability": "nonpayable",
      "type": "function"
    },
    {
      "inputs": [
        {
          "internalType": "string",
          "name": "str",
          "type": "string"
        }
      ],
      "name": "setSoundURIPostfix",
      "outputs": [],
      "stateMutability": "nonpayable",
      "type": "function"
    },
    {
      "inputs": [],
      "name": "soundBaseURI",
      "outputs": [
        {
          "internalType": "string",
          "name": "",
          "type": "string"
        }
      ],
      "stateMutability": "view",
      "type": "function"
    },
    {
      "inputs": [],
      "name": "soundURIPostfix",
      "outputs": [
        {
          "internalType": "string",
          "name": "",
          "type": "string"
        }
      ],
      "stateMutability": "view",
      "type": "function"
    },
    {
      "inputs": [
        {
          "internalType": "uint256",
          "name": "tokenId",
          "type": "uint256"
        }
      ],
      "name": "tokenURI",
      "outputs": [
        {
          "internalType": "string",
          "name": "",
          "type": "string"
        }
      ],
      "stateMutability": "view",
      "type": "function"
    },
    {
      "inputs": [
        {
          "internalType": "address",
          "name": "newOwner",
          "type": "address"
        }
      ],
      "name": "transferOwnership",
      "outputs": [],
      "stateMutability": "nonpayable",
      "type": "function"
    }
  ],
  "transactionHash": "0x947fe26f44dee0a3878cd087dfd3d4ffdf76bafd8d9154c5514c508068e0661b",
  "args": [],
  "numDeployments": 1,
  "solcInputHash": "055afc25facb02399c361d47dc85e917",
  "bytecode": "0x6080604052604051806080016040528060508152602001620031d260509139600290816200002e919062000462565b506040518060400160405280600481526020017f2e6d7033000000000000000000000000000000000000000000000000000000008152506003908162000075919062000462565b506040518060a00160405280606481526020016200316e6064913960049081620000a0919062000462565b506040518060400160405280600481526020017f2e706e670000000000000000000000000000000000000000000000000000000081525060059081620000e7919062000462565b50348015620000f557600080fd5b50620001166200010a6200011c60201b60201c565b6200012460201b60201c565b62000549565b600033905090565b60008060009054906101000a900473ffffffffffffffffffffffffffffffffffffffff169050816000806101000a81548173ffffffffffffffffffffffffffffffffffffffff021916908373ffffffffffffffffffffffffffffffffffffffff1602179055508173ffffffffffffffffffffffffffffffffffffffff168173ffffffffffffffffffffffffffffffffffffffff167f8be0079c531659141344cd1fd0a4f28419497f9722a3daafe3b4186f6b6457e060405160405180910390a35050565b600081519050919050565b7f4e487b7100000000000000000000000000000000000000000000000000000000600052604160045260246000fd5b7f4e487b7100000000000000000000000000000000000000000000000000000000600052602260045260246000fd5b600060028204905060018216806200026a57607f821691505b60208210810362000280576200027f62000222565b5b50919050565b60008190508160005260206000209050919050565b60006020601f8301049050919050565b600082821b905092915050565b600060088302620002ea7fffffffffffffffffffffffffffffffffffffffffffffffffffffffffffffffff82620002ab565b620002f68683620002ab565b95508019841693508086168417925050509392505050565b6000819050919050565b6000819050919050565b6000620003436200033d62000337846200030e565b62000318565b6200030e565b9050919050565b6000819050919050565b6200035f8362000322565b620003776200036e826200034a565b848454620002b8565b825550505050565b600090565b6200038e6200037f565b6200039b81848462000354565b505050565b5b81811015620003c357620003b760008262000384565b600181019050620003a1565b5050565b601f8211156200041257620003dc8162000286565b620003e7846200029b565b81016020851015620003f7578190505b6200040f62000406856200029b565b830182620003a0565b50505b505050565b600082821c905092915050565b6000620004376000198460080262000417565b1980831691505092915050565b600062000452838362000424565b9150826002028217905092915050565b6200046d82620001e8565b67ffffffffffffffff811115620004895762000488620001f3565b5b62000495825462000251565b620004a2828285620003c7565b600060209050601f831160018114620004da5760008415620004c5578287015190505b620004d1858262000444565b86555062000541565b601f198416620004ea8662000286565b60005b828110156200051457848901518255600182019150602085019450602081019050620004ed565b8683101562000534578489015162000530601f89168262000424565b8355505b6001600288020188555050505b505050505050565b612c1580620005596000396000f3fe608060405234801561001057600080fd5b50600436106100e95760003560e01c8063715018a61161008c578063c87b56dd11610066578063c87b56dd146101fc578063d56d229d1461022c578063d63ccea01461024a578063f2fde38b14610268576100e9565b8063715018a6146101b85780638da5cb5b146101c2578063bab07de8146101e0576100e9565b80633ddc347a116100c85780633ddc347a1461014657806352f5ad7714610162578063581746c41461017e5780635f7a6a341461019c576100e9565b8062543a14146100ee57806304539b4e1461010c578063335922ca14610128575b600080fd5b6100f6610284565b60405161010391906110fe565b60405180910390f35b61012660048036038101906101219190611269565b610312565b005b61013061032d565b60405161013d91906110fe565b60405180910390f35b610160600480360381019061015b9190611269565b6103bb565b005b61017c60048036038101906101779190611310565b6103d6565b005b610186610422565b60405161019391906110fe565b60405180910390f35b6101b660048036038101906101b19190611269565b6104b0565b005b6101c06104cb565b005b6101ca6104df565b6040516101d7919061134c565b60405180910390f35b6101fa60048036038101906101f59190611269565b610508565b005b6102166004803603810190610211919061139d565b610523565b60405161022391906110fe565b60405180910390f35b610234610b03565b6040516102419190611429565b60405180910390f35b610252610b29565b60405161025f91906110fe565b60405180910390f35b610282600480360381019061027d9190611310565b610bb7565b005b6004805461029190611473565b80601f01602080910402602001604051908101604052809291908181526020018280546102bd90611473565b801561030a5780601f106102df5761010080835404028352916020019161030a565b820191906000526020600020905b8154815290600101906020018083116102ed57829003601f168201915b505050505081565b61031a610c3a565b80600490816103299190611646565b5050565b6005805461033a90611473565b80601f016020809104026020016040519081016040528092919081815260200182805461036690611473565b80156103b35780601f10610388576101008083540402835291602001916103b3565b820191906000526020600020905b81548152906001019060200180831161039657829003601f168201915b505050505081565b6103c3610c3a565b80600590816103d29190611646565b5050565b6103de610c3a565b80600160006101000a81548173ffffffffffffffffffffffffffffffffffffffff021916908373ffffffffffffffffffffffffffffffffffffffff16021790555050565b6003805461042f90611473565b80601f016020809104026020016040519081016040528092919081815260200182805461045b90611473565b80156104a85780601f1061047d576101008083540402835291602001916104a8565b820191906000526020600020905b81548152906001019060200180831161048b57829003601f168201915b505050505081565b6104b8610c3a565b80600390816104c79190611646565b5050565b6104d3610c3a565b6104dd6000610cb8565b565b60008060009054906101000a900473ffffffffffffffffffffffffffffffffffffffff16905090565b610510610c3a565b806002908161051f9190611646565b5050565b60606000600160009054906101000a900473ffffffffffffffffffffffffffffffffffffffff1673ffffffffffffffffffffffffffffffffffffffff1663c2207fc4846040518263ffffffff1660e01b81526004016105829190611727565b606060405180830381865afa15801561059f573d6000803e3d6000fd5b505050506040513d601f19601f820116820180604052508101906105c391906117e4565b90506105cd611047565b60405180610100016040528060d88152602001612ac860d89139816000600481106105fb576105fa611811565b5b602002018190525061061f600f8360200151610617919061186f565b60ff16610d7c565b61063b600f8460400151610633919061186f565b60ff16610d7c565b60405160200161064c9291906119c4565b6040516020818303038152906040528160016004811061066f5761066e611811565b5b60200201819052506000600160009054906101000a900473ffffffffffffffffffffffffffffffffffffffff1673ffffffffffffffffffffffffffffffffffffffff16636352211e866040518263ffffffff1660e01b81526004016106d49190611727565b602060405180830381865afa1580156106f1573d6000803e3d6000fd5b505050506040513d601f19601f820116820180604052508101906107159190611a26565b90506000600160009054906101000a900473ffffffffffffffffffffffffffffffffffffffff1673ffffffffffffffffffffffffffffffffffffffff166370a08231836040518263ffffffff1660e01b8152600401610774919061134c565b602060405180830381865afa158015610791573d6000803e3d6000fd5b505050506040513d601f19601f820116820180604052508101906107b59190611a68565b905060005b818110156109b7576000600160009054906101000a900473ffffffffffffffffffffffffffffffffffffffff1673ffffffffffffffffffffffffffffffffffffffff16632f745c5985846040518363ffffffff1660e01b8152600401610821929190611a95565b602060405180830381865afa15801561083e573d6000803e3d6000fd5b505050506040513d601f19601f820116820180604052508101906108629190611a68565b90506000600160009054906101000a900473ffffffffffffffffffffffffffffffffffffffff1673ffffffffffffffffffffffffffffffffffffffff1663c2207fc4836040518263ffffffff1660e01b81526004016108c19190611727565b606060405180830381865afa1580156108de573d6000803e3d6000fd5b505050506040513d601f19601f8201168201806040525081019061090291906117e4565b90508560026004811061091857610917611811565b5b602002015161092d826020015160ff16610d7c565b61093d836040015160ff16610d7c565b600461094f856000015160ff16610d7c565b6005610961876000015160ff16610d7c565b6040516020016109779796959493929190611d2f565b6040516020818303038152906040528660026004811061099a57610999611811565b5b6020020181905250505080806109af90611dd7565b9150506107ba565b506040518060400160405280601281526020017f253235334325323532467376672532353345000000000000000000000000000081525083600360048110610a0257610a01611811565b5b6020020181905250600060026003604051602001610a21929190612117565b6040516020818303038152906040529050600084600060048110610a4857610a47611811565b5b602002015185600160048110610a6157610a60611811565b5b602002015186600260048110610a7a57610a79611811565b5b602002015187600360048110610a9357610a92611811565b5b6020020151610aa186610edc565b604051602001610ab59594939291906125c6565b60405160208183030381529060405290506000610ad189610d7c565b82604051602001610ae39291906127fa565b604051602081830303815290604052905080975050505050505050919050565b600160009054906101000a900473ffffffffffffffffffffffffffffffffffffffff1681565b60028054610b3690611473565b80601f0160208091040260200160405190810160405280929190818152602001828054610b6290611473565b8015610baf5780601f10610b8457610100808354040283529160200191610baf565b820191906000526020600020905b815481529060010190602001808311610b9257829003601f168201915b505050505081565b610bbf610c3a565b600073ffffffffffffffffffffffffffffffffffffffff168173ffffffffffffffffffffffffffffffffffffffff1603610c2e576040517f08c379a0000000000000000000000000000000000000000000000000000000008152600401610c2590612900565b60405180910390fd5b610c3781610cb8565b50565b610c4261103f565b73ffffffffffffffffffffffffffffffffffffffff16610c606104df565b73ffffffffffffffffffffffffffffffffffffffff1614610cb6576040517f08c379a0000000000000000000000000000000000000000000000000000000008152600401610cad9061296c565b60405180910390fd5b565b60008060009054906101000a900473ffffffffffffffffffffffffffffffffffffffff169050816000806101000a81548173ffffffffffffffffffffffffffffffffffffffff021916908373ffffffffffffffffffffffffffffffffffffffff1602179055508173ffffffffffffffffffffffffffffffffffffffff168173ffffffffffffffffffffffffffffffffffffffff167f8be0079c531659141344cd1fd0a4f28419497f9722a3daafe3b4186f6b6457e060405160405180910390a35050565b606060008203610dc3576040518060400160405280600181526020017f30000000000000000000000000000000000000000000000000000000000000008152509050610ed7565b600082905060005b60008214610df5578080610dde90611dd7565b915050600a82610dee91906129bb565b9150610dcb565b60008167ffffffffffffffff811115610e1157610e1061113e565b5b6040519080825280601f01601f191660200182016040528015610e435781602001600182028036833780820191505090505b5090505b60008514610ed057600182610e5c91906129ec565b9150600a85610e6b9190612a20565b6030610e779190612a51565b60f81b818381518110610e8d57610e8c611811565b5b60200101907effffffffffffffffffffffffffffffffffffffffffffffffffffffffffffff1916908160001a905350600a85610ec991906129bb565b9450610e47565b8093505050505b919050565b60606000825103610efe5760405180602001604052806000815250905061103a565b6000604051806060016040528060408152602001612ba06040913990506000600360028551610f2d9190612a51565b610f3791906129bb565b6004610f439190612a85565b67ffffffffffffffff811115610f5c57610f5b61113e565b5b6040519080825280601f01601f191660200182016040528015610f8e5781602001600182028036833780820191505090505b509050600182016020820185865187015b80821015610ffa576003820191508151603f8160121c168501518453600184019350603f81600c1c168501518453600184019350603f8160061c168501518453600184019350603f8116850151845360018401935050610f9f565b5050600386510660018114611016576002811461102957611031565b603d6001830353603d6002830353611031565b603d60018303535b50505080925050505b919050565b600033905090565b60405180608001604052806004905b60608152602001906001900390816110565790505090565b600081519050919050565b600082825260208201905092915050565b60005b838110156110a857808201518184015260208101905061108d565b60008484015250505050565b6000601f19601f8301169050919050565b60006110d08261106e565b6110da8185611079565b93506110ea81856020860161108a565b6110f3816110b4565b840191505092915050565b6000602082019050818103600083015261111881846110c5565b905092915050565b6000604051905090565b600080fd5b600080fd5b600080fd5b600080fd5b7f4e487b7100000000000000000000000000000000000000000000000000000000600052604160045260246000fd5b611176826110b4565b810181811067ffffffffffffffff821117156111955761119461113e565b5b80604052505050565b60006111a8611120565b90506111b4828261116d565b919050565b600067ffffffffffffffff8211156111d4576111d361113e565b5b6111dd826110b4565b9050602081019050919050565b82818337600083830152505050565b600061120c611207846111b9565b61119e565b90508281526020810184848401111561122857611227611139565b5b6112338482856111ea565b509392505050565b600082601f8301126112505761124f611134565b5b81356112608482602086016111f9565b91505092915050565b60006020828403121561127f5761127e61112a565b5b600082013567ffffffffffffffff81111561129d5761129c61112f565b5b6112a98482850161123b565b91505092915050565b600073ffffffffffffffffffffffffffffffffffffffff82169050919050565b60006112dd826112b2565b9050919050565b6112ed816112d2565b81146112f857600080fd5b50565b60008135905061130a816112e4565b92915050565b6000602082840312156113265761132561112a565b5b6000611334848285016112fb565b91505092915050565b611346816112d2565b82525050565b6000602082019050611361600083018461133d565b92915050565b6000819050919050565b61137a81611367565b811461138557600080fd5b50565b60008135905061139781611371565b92915050565b6000602082840312156113b3576113b261112a565b5b60006113c184828501611388565b91505092915050565b6000819050919050565b60006113ef6113ea6113e5846112b2565b6113ca565b6112b2565b9050919050565b6000611401826113d4565b9050919050565b6000611413826113f6565b9050919050565b61142381611408565b82525050565b600060208201905061143e600083018461141a565b92915050565b7f4e487b7100000000000000000000000000000000000000000000000000000000600052602260045260246000fd5b6000600282049050600182168061148b57607f821691505b60208210810361149e5761149d611444565b5b50919050565b60008190508160005260206000209050919050565b60006020601f8301049050919050565b600082821b905092915050565b6000600883026115067fffffffffffffffffffffffffffffffffffffffffffffffffffffffffffffffff826114c9565b61151086836114c9565b95508019841693508086168417925050509392505050565b600061154361153e61153984611367565b6113ca565b611367565b9050919050565b6000819050919050565b61155d83611528565b6115716115698261154a565b8484546114d6565b825550505050565b600090565b611586611579565b611591818484611554565b505050565b5b818110156115b5576115aa60008261157e565b600181019050611597565b5050565b601f8211156115fa576115cb816114a4565b6115d4846114b9565b810160208510156115e3578190505b6115f76115ef856114b9565b830182611596565b50505b505050565b600082821c905092915050565b600061161d600019846008026115ff565b1980831691505092915050565b6000611636838361160c565b9150826002028217905092915050565b61164f8261106e565b67ffffffffffffffff8111156116685761166761113e565b5b6116728254611473565b61167d8282856115b9565b600060209050601f8311600181146116b0576000841561169e578287015190505b6116a8858261162a565b865550611710565b601f1984166116be866114a4565b60005b828110156116e6578489015182556001820191506020850194506020810190506116c1565b8683101561170357848901516116ff601f89168261160c565b8355505b6001600288020188555050505b505050505050565b61172181611367565b82525050565b600060208201905061173c6000830184611718565b92915050565b600080fd5b600060ff82169050919050565b61175d81611747565b811461176857600080fd5b50565b60008151905061177a81611754565b92915050565b60006060828403121561179657611795611742565b5b6117a0606061119e565b905060006117b08482850161176b565b60008301525060206117c48482850161176b565b60208301525060406117d88482850161176b565b60408301525092915050565b6000606082840312156117fa576117f961112a565b5b600061180884828501611780565b91505092915050565b7f4e487b7100000000000000000000000000000000000000000000000000000000600052603260045260246000fd5b7f4e487b7100000000000000000000000000000000000000000000000000000000600052601160045260246000fd5b600061187a82611747565b915061188583611747565b9250828201905060ff81111561189e5761189d611840565b5b92915050565b7f2532353343636972636c65253235323063782532353344253235323200000000815250565b600081905092915050565b60006118e08261106e565b6118ea81856118ca565b93506118fa81856020860161108a565b80840191505092915050565b7f2532353232253235323063792532353344253235323200000000000000000000815250565b7f253235323225323532307225323533442532353232313525323532322532353260008201527f3066696c6c25323533442532353232253235323366666664623325323532322560208201527f3235323025323532462532353345000000000000000000000000000000000000604082015250565b60006119ae604e836118ca565b91506119b98261192c565b604e82019050919050565b60006119cf826118a4565b601c820191506119df82856118d5565b91506119ea82611906565b6016820191506119fa82846118d5565b9150611a05826119a1565b91508190509392505050565b600081519050611a20816112e4565b92915050565b600060208284031215611a3c57611a3b61112a565b5b6000611a4a84828501611a11565b91505092915050565b600081519050611a6281611371565b92915050565b600060208284031215611a7e57611a7d61112a565b5b6000611a8c84828501611a53565b91505092915050565b6000604082019050611aaa600083018561133d565b611ab76020830184611718565b9392505050565b7f2532353343696d61676525323530442532353041782532353344253235323200815250565b7f2532353232253235304425323530417925323533442532353232000000000000815250565b7f253235323225323530442532353041776964746825323533442532353232333060008201527f253235323225323530442532353041686569676874253235334425323532323360208201527f302532353232253235304425323530417072657365727665417370656374526160408201527f74696f25323533442532353232784d6964594d696425323532306d656574253260608201527f35323225323530442532353041786c696e6b253235334168726566253235334460808201527f253235323200000000000000000000000000000000000000000000000000000060a082015250565b6000611bfe60a5836118ca565b9150611c0982611b0a565b60a582019050919050565b60008154611c2181611473565b611c2b81866118ca565b94506001821660008114611c465760018114611c5b57611c8e565b60ff1983168652811515820286019350611c8e565b611c64856114a4565b60005b83811015611c8657815481890152600182019150602081019050611c67565b838801955050505b50505092915050565b7f253235323225323530442532353041646174612d74797065253235334425323560008201527f3232000000000000000000000000000000000000000000000000000000000000602082015250565b6000611cf36022836118ca565b9150611cfe82611c97565b602282019050919050565b7f2532353232253235324625323533452532353044253235304100000000000000815250565b6000611d3b828a6118d5565b9150611d4682611abe565b601f82019150611d5682896118d5565b9150611d6182611ae4565b601a82019150611d7182886118d5565b9150611d7c82611bf1565b9150611d888287611c14565b9150611d9482866118d5565b9150611da08285611c14565b9150611dab82611ce6565b9150611db782846118d5565b9150611dc282611d09565b60198201915081905098975050505050505050565b6000611de282611367565b91507fffffffffffffffffffffffffffffffffffffffffffffffffffffffffffffffff8203611e1457611e13611840565b5b600182019050919050565b7f636f6e73742073656d6973203d20646f63756d656e742e717565727953656c6560008201527f63746f72416c6c2822696d61676522293b000000000000000000000000000000602082015250565b6000611e7b6031836118ca565b9150611e8682611e1f565b603182019050919050565b7f666f7220286c65742069203d20302c206c203d2073656d69732e6c656e67746860008201527f3b206c203e20693b20692b2b29207b0000000000000000000000000000000000602082015250565b6000611eed602f836118ca565b9150611ef882611e91565b602f82019050919050565b7f20636f6e73742066696c65203d2073656d69735b695d2e67657441747472696260008201527f7574652822646174612d7479706522293b000000000000000000000000000000602082015250565b6000611f5f6031836118ca565b9150611f6a82611f03565b603182019050919050565b7f20636f6e737420737263203d2060000000000000000000000000000000000000815250565b7f247b66696c657d00000000000000000000000000000000000000000000000000815250565b7f603b000000000000000000000000000000000000000000000000000000000000815250565b7f20636f6e737420617564696f203d206e657720417564696f28737263293b0000815250565b7f2073656d69735b695d2e6164644576656e744c697374656e657228226d6f757360008201527f65646f776e222c202829203d3e207b0000000000000000000000000000000000602082015250565b6000612069602f836118ca565b91506120748261200d565b602f82019050919050565b7f2020617564696f2e63757272656e7454696d65203d20303b0000000000000000815250565b7f2020617564696f2e706c617928293b0000000000000000000000000000000000815250565b7f207d293b00000000000000000000000000000000000000000000000000000000815250565b7f7d00000000000000000000000000000000000000000000000000000000000000815250565b600061212282611e6e565b915061212d82611ee0565b915061213882611f52565b915061214382611f75565b600e820191506121538285611c14565b915061215e82611f9b565b60078201915061216e8284611c14565b915061217982611fc1565b60028201915061218882611fe7565b601e820191506121978261205c565b91506121a28261207f565b6018820191506121b1826120a5565b600f820191506121c0826120cb565b6004820191506121cf826120f1565b6001820191508190509392505050565b7f25323533432532353231444f4354595045253235323068746d6c25323533452560008201527f3235334368746d6c25323533452532353343686561642532353345253235334360208201527f6d657461253235323063686172736574253235334425323532327574662d382560408201527f3235323225323532302532353246253235334525323533437469746c6525323560608201527f334553656d69253235334325323532467469746c65253235334525323533437360808201527f74796c652532353345626f647925323537426d617267696e253235334130707860a08201527f253235334225323537442e636f6e7461696e65722532353742706f736974696f60c08201527f6e253235334172656c617469766525323533427769647468253235334131303060e08201527f766d696e25323533426865696768742532353341313030766d696e25323533426101008201527f6261636b67726f756e642d636f6c6f72253235334125323532336634663466346101208201527f253235334225323537442e636f6e74656e742532353742706f736974696f6e256101408201527f323533416162736f6c7574652532353342746f7025323533413025323533426c6101608201527f65667425323533413025323533422532353744253235334325323532467374796101808201527f6c652532353345253235334325323532466865616425323533452532353343626101a08201527f6f6479253235334525323533436469762532353230636c6173732532353344256101c08201527f32353232636f6e7461696e6572253235323225323533452532353044253235306101e08201527f410000000000000000000000000000000000000000000000000000000000000061020082015250565b600061247f610201836118ca565b915061248a826121df565b61020182019050919050565b7f253235334325323532466469762532353345253235334373637269707425323560008201527f323073726325323533442532353232646174612532353341746578742532353260208201527f466a617661736372697074253235334262617365363425323532430000000000604082015250565b6000612518605b836118ca565b915061252382612496565b605b82019050919050565b7f253235323225323533452532353343253235324673637269707425323533452560008201527f323533432532353246626f647925323533452532353343253235324668746d6c60208201527f2532353345253235304425323530410000000000000000000000000000000000604082015250565b60006125b0604f836118ca565b91506125bb8261252e565b604f82019050919050565b60006125d182612471565b91506125dd82886118d5565b91506125e982876118d5565b91506125f582866118d5565b915061260182856118d5565b915061260c8261250b565b915061261882846118d5565b9150612623826125a3565b91508190509695505050505050565b7f646174613a6170706c69636174696f6e2f6a736f6e2c00000000000000000000815250565b7f2537420000000000000000000000000000000000000000000000000000000000815250565b7f2532326e616d6525323225334125323025323253656d69253230253233000000815250565b7f2532322532430000000000000000000000000000000000000000000000000000815250565b7f2532326465736372697074696f6e25323225334125323025323253656d69253260008201527f3225324300000000000000000000000000000000000000000000000000000000602082015250565b60006127266024836118ca565b9150612731826126ca565b602482019050919050565b7f253232616e696d6174696f6e5f75726c2532322533412532302532326461746160008201527f2533417465787425324668746d6c253243000000000000000000000000000000602082015250565b60006127986031836118ca565b91506127a38261273c565b603182019050919050565b7f2532320000000000000000000000000000000000000000000000000000000000815250565b7f2537440000000000000000000000000000000000000000000000000000000000815250565b600061280582612632565b60168201915061281482612658565b6003820191506128238261267e565b601d8201915061283382856118d5565b915061283e826126a4565b60068201915061284d82612719565b91506128588261278b565b915061286482846118d5565b915061286f826127ae565b60038201915061287e826127d4565b6003820191508190509392505050565b7f4f776e61626c653a206e6577206f776e657220697320746865207a65726f206160008201527f6464726573730000000000000000000000000000000000000000000000000000602082015250565b60006128ea602683611079565b91506128f58261288e565b604082019050919050565b60006020820190508181036000830152612919816128dd565b9050919050565b7f4f776e61626c653a2063616c6c6572206973206e6f7420746865206f776e6572600082015250565b6000612956602083611079565b915061296182612920565b602082019050919050565b6000602082019050818103600083015261298581612949565b9050919050565b7f4e487b7100000000000000000000000000000000000000000000000000000000600052601260045260246000fd5b60006129c682611367565b91506129d183611367565b9250826129e1576129e061298c565b5b828204905092915050565b60006129f782611367565b9150612a0283611367565b9250828203905081811115612a1a57612a19611840565b5b92915050565b6000612a2b82611367565b9150612a3683611367565b925082612a4657612a4561298c565b5b828206905092915050565b6000612a5c82611367565b9150612a6783611367565b9250828201905080821115612a7f57612a7e611840565b5b92915050565b6000612a9082611367565b9150612a9b83611367565b9250828202612aa981611367565b91508282048414831517612ac057612abf611840565b5b509291505056fe25323533437376672532353044253235304176696577426f78253235334425323532323025323532432532353230302532353243253235323032353625323532432532353230323536253235323225323530442532353041786d6c6e7325323533442532353232687474702532353341253235324625323532467777772e77332e6f72672532353246323030302532353246737667253235323225323530442532353041636c61737325323533442532353232636f6e74656e742532353232253235304425323530412532353345253235304425323530414142434445464748494a4b4c4d4e4f505152535455565758595a6162636465666768696a6b6c6d6e6f707172737475767778797a303132333435363738392b2fa264697066735822122025f73b3b0a014d0df8553fde6bf674f1acd826bc33516833f2d5d22fa1c986c064736f6c6343000811003368747470732533412532462532467261772e67697468756275736572636f6e74656e742e636f6d25324661766364736c64253246636f64652d61732d6172742532466d61696e25324673656d692532466d65746164617461253246696d6167657325324668747470733a2f2f7261772e67697468756275736572636f6e74656e742e636f6d2f61766364736c642f636f64652d61732d6172742f6d61696e2f73656d692f6d657461646174612f736f756e64732f",
  "devdoc": {
    "kind": "dev",
    "methods": {
      "owner()": {
        "details": "Returns the address of the current owner."
      },
      "renounceOwnership()": {
        "details": "Leaves the contract without owner. It will not be possible to call `onlyOwner` functions anymore. Can only be called by the current owner. NOTE: Renouncing ownership will leave the contract without an owner, thereby removing any functionality that is only available to the owner."
      },
      "transferOwnership(address)": {
        "details": "Transfers ownership of the contract to a new account (`newOwner`). Can only be called by the current owner."
      }
    },
    "version": 1
  },
  "userdoc": {
    "kind": "user",
    "methods": {},
    "version": 1
  },
  "storageLayout": {
    "storage": [
      {
        "astId": 7,
        "contract": "contracts/Renderer.sol:Renderer",
        "label": "_owner",
        "offset": 0,
        "slot": "0",
        "type": "t_address"
      },
      {
        "astId": 469,
        "contract": "contracts/Renderer.sol:Renderer",
        "label": "nftContract",
        "offset": 0,
        "slot": "1",
        "type": "t_contract(ISemiNFT)458"
      },
      {
        "astId": 472,
        "contract": "contracts/Renderer.sol:Renderer",
        "label": "soundBaseURI",
        "offset": 0,
        "slot": "2",
        "type": "t_string_storage"
      },
      {
        "astId": 475,
        "contract": "contracts/Renderer.sol:Renderer",
        "label": "soundURIPostfix",
        "offset": 0,
        "slot": "3",
        "type": "t_string_storage"
      },
      {
        "astId": 478,
        "contract": "contracts/Renderer.sol:Renderer",
        "label": "percentEncodedImageBaseURI",
        "offset": 0,
        "slot": "4",
        "type": "t_string_storage"
      },
      {
        "astId": 481,
        "contract": "contracts/Renderer.sol:Renderer",
        "label": "imageURIPostfix",
        "offset": 0,
        "slot": "5",
        "type": "t_string_storage"
      }
    ],
    "types": {
      "t_address": {
        "encoding": "inplace",
        "label": "address",
        "numberOfBytes": "20"
      },
      "t_contract(ISemiNFT)458": {
        "encoding": "inplace",
        "label": "contract ISemiNFT",
        "numberOfBytes": "20"
      },
      "t_string_storage": {
        "encoding": "bytes",
        "label": "string",
        "numberOfBytes": "32"
      }
    }
  }
}