{
  "address": "0x0d1C8fCf7565a570795865648bC1C44AC4D23D63",
  "abi": [
    {
      "inputs": [],
      "stateMutability": "nonpayable",
      "type": "constructor"
    },
    {
      "anonymous": false,
      "inputs": [
        {
          "indexed": true,
          "internalType": "address",
          "name": "owner",
          "type": "address"
        },
        {
          "indexed": true,
          "internalType": "address",
          "name": "approved",
          "type": "address"
        },
        {
          "indexed": true,
          "internalType": "uint256",
          "name": "tokenId",
          "type": "uint256"
        }
      ],
      "name": "Approval",
      "type": "event"
    },
    {
      "anonymous": false,
      "inputs": [
        {
          "indexed": true,
          "internalType": "address",
          "name": "owner",
          "type": "address"
        },
        {
          "indexed": true,
          "internalType": "address",
          "name": "operator",
          "type": "address"
        },
        {
          "indexed": false,
          "internalType": "bool",
          "name": "approved",
          "type": "bool"
        }
      ],
      "name": "ApprovalForAll",
      "type": "event"
    },
    {
      "anonymous": false,
      "inputs": [
        {
          "indexed": true,
          "internalType": "address",
          "name": "previousOwner",
          "type": "address"
        },
        {
          "indexed": true,
          "internalType": "address",
          "name": "newOwner",
          "type": "address"
        }
      ],
      "name": "OwnershipTransferred",
      "type": "event"
    },
    {
      "anonymous": false,
      "inputs": [
        {
          "indexed": true,
          "internalType": "address",
          "name": "from",
          "type": "address"
        },
        {
          "indexed": true,
          "internalType": "address",
          "name": "to",
          "type": "address"
        },
        {
          "indexed": true,
          "internalType": "uint256",
          "name": "tokenId",
          "type": "uint256"
        }
      ],
      "name": "Transfer",
      "type": "event"
    },
    {
      "inputs": [
        {
          "internalType": "address",
          "name": "to",
          "type": "address"
        },
        {
          "internalType": "uint256",
          "name": "tokenId",
          "type": "uint256"
        }
      ],
      "name": "approve",
      "outputs": [],
      "stateMutability": "nonpayable",
      "type": "function"
    },
    {
      "inputs": [
        {
          "internalType": "address",
          "name": "owner",
          "type": "address"
        }
      ],
      "name": "balanceOf",
      "outputs": [
        {
          "internalType": "uint256",
          "name": "",
          "type": "uint256"
        }
      ],
      "stateMutability": "view",
      "type": "function"
    },
    {
      "inputs": [],
      "name": "baseUrl",
      "outputs": [
        {
          "internalType": "string",
          "name": "",
          "type": "string"
        }
      ],
      "stateMutability": "view",
      "type": "function"
    },
    {
      "inputs": [
        {
          "internalType": "uint256",
          "name": "tokenId",
          "type": "uint256"
        }
      ],
      "name": "getApproved",
      "outputs": [
        {
          "internalType": "address",
          "name": "",
          "type": "address"
        }
      ],
      "stateMutability": "view",
      "type": "function"
    },
    {
      "inputs": [
        {
          "internalType": "address",
          "name": "owner",
          "type": "address"
        },
        {
          "internalType": "address",
          "name": "operator",
          "type": "address"
        }
      ],
      "name": "isApprovedForAll",
      "outputs": [
        {
          "internalType": "bool",
          "name": "",
          "type": "bool"
        }
      ],
      "stateMutability": "view",
      "type": "function"
    },
    {
      "inputs": [],
      "name": "name",
      "outputs": [
        {
          "internalType": "string",
          "name": "",
          "type": "string"
        }
      ],
      "stateMutability": "view",
      "type": "function"
    },
    {
      "inputs": [],
      "name": "owner",
      "outputs": [
        {
          "internalType": "address",
          "name": "",
          "type": "address"
        }
      ],
      "stateMutability": "view",
      "type": "function"
    },
    {
      "inputs": [
        {
          "internalType": "uint256",
          "name": "tokenId",
          "type": "uint256"
        }
      ],
      "name": "ownerOf",
      "outputs": [
        {
          "internalType": "address",
          "name": "",
          "type": "address"
        }
      ],
      "stateMutability": "view",
      "type": "function"
    },
    {
      "inputs": [],
      "name": "renounceOwnership",
      "outputs": [],
      "stateMutability": "nonpayable",
      "type": "function"
    },
    {
      "inputs": [
        {
          "internalType": "address",
          "name": "to",
          "type": "address"
        }
      ],
      "name": "safeMint",
      "outputs": [],
      "stateMutability": "nonpayable",
      "type": "function"
    },
    {
      "inputs": [
        {
          "internalType": "address",
          "name": "from",
          "type": "address"
        },
        {
          "internalType": "address",
          "name": "to",
          "type": "address"
        },
        {
          "internalType": "uint256",
          "name": "tokenId",
          "type": "uint256"
        }
      ],
      "name": "safeTransferFrom",
      "outputs": [],
      "stateMutability": "nonpayable",
      "type": "function"
    },
    {
      "inputs": [
        {
          "internalType": "address",
          "name": "from",
          "type": "address"
        },
        {
          "internalType": "address",
          "name": "to",
          "type": "address"
        },
        {
          "internalType": "uint256",
          "name": "tokenId",
          "type": "uint256"
        },
        {
          "internalType": "bytes",
          "name": "data",
          "type": "bytes"
        }
      ],
      "name": "safeTransferFrom",
      "outputs": [],
      "stateMutability": "nonpayable",
      "type": "function"
    },
    {
      "inputs": [
        {
          "internalType": "address",
          "name": "operator",
          "type": "address"
        },
        {
          "internalType": "bool",
          "name": "approved",
          "type": "bool"
        }
      ],
      "name": "setApprovalForAll",
      "outputs": [],
      "stateMutability": "nonpayable",
      "type": "function"
    },
    {
      "inputs": [
        {
          "internalType": "string",
          "name": "_baseUrl",
          "type": "string"
        }
      ],
      "name": "setBaseURI",
      "outputs": [],
      "stateMutability": "nonpayable",
      "type": "function"
    },
    {
      "inputs": [
        {
          "internalType": "bytes4",
          "name": "interfaceId",
          "type": "bytes4"
        }
      ],
      "name": "supportsInterface",
      "outputs": [
        {
          "internalType": "bool",
          "name": "",
          "type": "bool"
        }
      ],
      "stateMutability": "view",
      "type": "function"
    },
    {
      "inputs": [],
      "name": "symbol",
      "outputs": [
        {
          "internalType": "string",
          "name": "",
          "type": "string"
        }
      ],
      "stateMutability": "view",
      "type": "function"
    },
    {
      "inputs": [
        {
          "internalType": "uint256",
          "name": "tokenId",
          "type": "uint256"
        }
      ],
      "name": "tokenURI",
      "outputs": [
        {
          "internalType": "string",
          "name": "",
          "type": "string"
        }
      ],
      "stateMutability": "view",
      "type": "function"
    },
    {
      "inputs": [
        {
          "internalType": "address",
          "name": "from",
          "type": "address"
        },
        {
          "internalType": "address",
          "name": "to",
          "type": "address"
        },
        {
          "internalType": "uint256",
          "name": "tokenId",
          "type": "uint256"
        }
      ],
      "name": "transferFrom",
      "outputs": [],
      "stateMutability": "nonpayable",
      "type": "function"
    },
    {
      "inputs": [
        {
          "internalType": "address",
          "name": "newOwner",
          "type": "address"
        }
      ],
      "name": "transferOwnership",
      "outputs": [],
      "stateMutability": "nonpayable",
      "type": "function"
    }
  ],
  "transactionHash": "0xc57599d40a391540f1ed9716c14ab82802151821bff7af34f559d952ce6ea5a2",
  "args": [],
  "numDeployments": 1,
  "solcInputHash": "235d8db2b7381ede5e65149116cbd698",
  "bytecode": "0x60806040526040518060800160405280605181526020016200342c60519139600990816200002e91906200043d565b503480156200003c57600080fd5b506040518060400160405280600781526020017f50726f7465696e000000000000000000000000000000000000000000000000008152506040518060400160405280600781526020017f50524f5445494e000000000000000000000000000000000000000000000000008152508160009081620000ba91906200043d565b508060019081620000cc91906200043d565b505050620000ef620000e3620000f560201b60201c565b620000fd60201b60201c565b62000524565b600033905090565b6000600760009054906101000a900473ffffffffffffffffffffffffffffffffffffffff16905081600760006101000a81548173ffffffffffffffffffffffffffffffffffffffff021916908373ffffffffffffffffffffffffffffffffffffffff1602179055508173ffffffffffffffffffffffffffffffffffffffff168173ffffffffffffffffffffffffffffffffffffffff167f8be0079c531659141344cd1fd0a4f28419497f9722a3daafe3b4186f6b6457e060405160405180910390a35050565b600081519050919050565b7f4e487b7100000000000000000000000000000000000000000000000000000000600052604160045260246000fd5b7f4e487b7100000000000000000000000000000000000000000000000000000000600052602260045260246000fd5b600060028204905060018216806200024557607f821691505b6020821081036200025b576200025a620001fd565b5b50919050565b60008190508160005260206000209050919050565b60006020601f8301049050919050565b600082821b905092915050565b600060088302620002c57fffffffffffffffffffffffffffffffffffffffffffffffffffffffffffffffff8262000286565b620002d1868362000286565b95508019841693508086168417925050509392505050565b6000819050919050565b6000819050919050565b60006200031e620003186200031284620002e9565b620002f3565b620002e9565b9050919050565b6000819050919050565b6200033a83620002fd565b62000352620003498262000325565b84845462000293565b825550505050565b600090565b620003696200035a565b620003768184846200032f565b505050565b5b818110156200039e57620003926000826200035f565b6001810190506200037c565b5050565b601f821115620003ed57620003b78162000261565b620003c28462000276565b81016020851015620003d2578190505b620003ea620003e18562000276565b8301826200037b565b50505b505050565b600082821c905092915050565b60006200041260001984600802620003f2565b1980831691505092915050565b60006200042d8383620003ff565b9150826002028217905092915050565b6200044882620001c3565b67ffffffffffffffff811115620004645762000463620001ce565b5b6200047082546200022c565b6200047d828285620003a2565b600060209050601f831160018114620004b55760008415620004a0578287015190505b620004ac85826200041f565b8655506200051c565b601f198416620004c58662000261565b60005b82811015620004ef57848901518255600182019150602085019450602081019050620004c8565b868310156200050f57848901516200050b601f891682620003ff565b8355505b6001600288020188555050505b505050505050565b612ef880620005346000396000f3fe608060405234801561001057600080fd5b50600436106101215760003560e01c80636352211e116100ad578063a22cb46511610071578063a22cb465146102f4578063b88d4fde14610310578063c87b56dd1461032c578063e985e9c51461035c578063f2fde38b1461038c57610121565b80636352211e1461024e57806370a082311461027e578063715018a6146102ae5780638da5cb5b146102b857806395d89b41146102d657610121565b806323b872dd116100f457806323b872dd146101c057806340d097c3146101dc57806342842e0e146101f857806355f804b3146102145780635bcabf041461023057610121565b806301ffc9a71461012657806306fdde0314610156578063081812fc14610174578063095ea7b3146101a4575b600080fd5b610140600480360381019061013b9190611bf5565b6103a8565b60405161014d9190611c3d565b60405180910390f35b61015e61048a565b60405161016b9190611ce8565b60405180910390f35b61018e60048036038101906101899190611d40565b61051c565b60405161019b9190611dae565b60405180910390f35b6101be60048036038101906101b99190611df5565b610562565b005b6101da60048036038101906101d59190611e35565b610679565b005b6101f660048036038101906101f19190611e88565b6106d9565b005b610212600480360381019061020d9190611e35565b610768565b005b61022e60048036038101906102299190611fea565b610788565b005b6102386107a3565b6040516102459190611ce8565b60405180910390f35b61026860048036038101906102639190611d40565b610831565b6040516102759190611dae565b60405180910390f35b61029860048036038101906102939190611e88565b6108e2565b6040516102a59190612042565b60405180910390f35b6102b6610999565b005b6102c06109ad565b6040516102cd9190611dae565b60405180910390f35b6102de6109d7565b6040516102eb9190611ce8565b60405180910390f35b61030e60048036038101906103099190612089565b610a69565b005b61032a6004803603810190610325919061216a565b610a7f565b005b61034660048036038101906103419190611d40565b610ae1565b6040516103539190611ce8565b60405180910390f35b610376600480360381019061037191906121ed565b610af3565b6040516103839190611c3d565b60405180910390f35b6103a660048036038101906103a19190611e88565b610b87565b005b60007f80ac58cd000000000000000000000000000000000000000000000000000000007bffffffffffffffffffffffffffffffffffffffffffffffffffffffff1916827bffffffffffffffffffffffffffffffffffffffffffffffffffffffff1916148061047357507f5b5e139f000000000000000000000000000000000000000000000000000000007bffffffffffffffffffffffffffffffffffffffffffffffffffffffff1916827bffffffffffffffffffffffffffffffffffffffffffffffffffffffff1916145b80610483575061048282610c0a565b5b9050919050565b6060600080546104999061225c565b80601f01602080910402602001604051908101604052809291908181526020018280546104c59061225c565b80156105125780601f106104e757610100808354040283529160200191610512565b820191906000526020600020905b8154815290600101906020018083116104f557829003601f168201915b5050505050905090565b600061052782610c74565b6004600083815260200190815260200160002060009054906101000a900473ffffffffffffffffffffffffffffffffffffffff169050919050565b600061056d82610831565b90508073ffffffffffffffffffffffffffffffffffffffff168373ffffffffffffffffffffffffffffffffffffffff16036105dd576040517f08c379a00000000000000000000000000000000000000000000000000000000081526004016105d4906122ff565b60405180910390fd5b8073ffffffffffffffffffffffffffffffffffffffff166105fc610cbf565b73ffffffffffffffffffffffffffffffffffffffff16148061062b575061062a81610625610cbf565b610af3565b5b61066a576040517f08c379a000000000000000000000000000000000000000000000000000000000815260040161066190612391565b60405180910390fd5b6106748383610cc7565b505050565b61068a610684610cbf565b82610d80565b6106c9576040517f08c379a00000000000000000000000000000000000000000000000000000000081526004016106c090612423565b60405180910390fd5b6106d4838383610e15565b505050565b60008190506106e8600861107b565b60006106f46008611091565b9050600181111561075957600060018261070e9190612472565b90505b600081111561075757600061072582610831565b9050610732818584610e15565b809350600182036107435750610757565b50808061074f906124a6565b915050610711565b505b610763828261109f565b505050565b61078383838360405180602001604052806000815250610a7f565b505050565b6107906110bd565b806009908161079f919061267b565b5050565b600980546107b09061225c565b80601f01602080910402602001604051908101604052809291908181526020018280546107dc9061225c565b80156108295780601f106107fe57610100808354040283529160200191610829565b820191906000526020600020905b81548152906001019060200180831161080c57829003601f168201915b505050505081565b6000806002600084815260200190815260200160002060009054906101000a900473ffffffffffffffffffffffffffffffffffffffff169050600073ffffffffffffffffffffffffffffffffffffffff168173ffffffffffffffffffffffffffffffffffffffff16036108d9576040517f08c379a00000000000000000000000000000000000000000000000000000000081526004016108d090612799565b60405180910390fd5b80915050919050565b60008073ffffffffffffffffffffffffffffffffffffffff168273ffffffffffffffffffffffffffffffffffffffff1603610952576040517f08c379a00000000000000000000000000000000000000000000000000000000081526004016109499061282b565b60405180910390fd5b600360008373ffffffffffffffffffffffffffffffffffffffff1673ffffffffffffffffffffffffffffffffffffffff168152602001908152602001600020549050919050565b6109a16110bd565b6109ab600061113b565b565b6000600760009054906101000a900473ffffffffffffffffffffffffffffffffffffffff16905090565b6060600180546109e69061225c565b80601f0160208091040260200160405190810160405280929190818152602001828054610a129061225c565b8015610a5f5780601f10610a3457610100808354040283529160200191610a5f565b820191906000526020600020905b815481529060010190602001808311610a4257829003601f168201915b5050505050905090565b610a7b610a74610cbf565b8383611201565b5050565b610a90610a8a610cbf565b83610d80565b610acf576040517f08c379a0000000000000000000000000000000000000000000000000000000008152600401610ac690612423565b60405180910390fd5b610adb8484848461136d565b50505050565b6060610aec826113c9565b9050919050565b6000600560008473ffffffffffffffffffffffffffffffffffffffff1673ffffffffffffffffffffffffffffffffffffffff16815260200190815260200160002060008373ffffffffffffffffffffffffffffffffffffffff1673ffffffffffffffffffffffffffffffffffffffff16815260200190815260200160002060009054906101000a900460ff16905092915050565b610b8f6110bd565b600073ffffffffffffffffffffffffffffffffffffffff168173ffffffffffffffffffffffffffffffffffffffff1603610bfe576040517f08c379a0000000000000000000000000000000000000000000000000000000008152600401610bf5906128bd565b60405180910390fd5b610c078161113b565b50565b60007f01ffc9a7000000000000000000000000000000000000000000000000000000007bffffffffffffffffffffffffffffffffffffffffffffffffffffffff1916827bffffffffffffffffffffffffffffffffffffffffffffffffffffffff1916149050919050565b610c7d816114db565b610cbc576040517f08c379a0000000000000000000000000000000000000000000000000000000008152600401610cb390612799565b60405180910390fd5b50565b600033905090565b816004600083815260200190815260200160002060006101000a81548173ffffffffffffffffffffffffffffffffffffffff021916908373ffffffffffffffffffffffffffffffffffffffff160217905550808273ffffffffffffffffffffffffffffffffffffffff16610d3a83610831565b73ffffffffffffffffffffffffffffffffffffffff167f8c5be1e5ebec7d5bd14f71427d1e84f3dd0314c0f7b2291e5b200ac8c7c3b92560405160405180910390a45050565b600080610d8c83610831565b90508073ffffffffffffffffffffffffffffffffffffffff168473ffffffffffffffffffffffffffffffffffffffff161480610dce5750610dcd8185610af3565b5b80610e0c57508373ffffffffffffffffffffffffffffffffffffffff16610df48461051c565b73ffffffffffffffffffffffffffffffffffffffff16145b91505092915050565b8273ffffffffffffffffffffffffffffffffffffffff16610e3582610831565b73ffffffffffffffffffffffffffffffffffffffff1614610e8b576040517f08c379a0000000000000000000000000000000000000000000000000000000008152600401610e829061294f565b60405180910390fd5b600073ffffffffffffffffffffffffffffffffffffffff168273ffffffffffffffffffffffffffffffffffffffff1603610efa576040517f08c379a0000000000000000000000000000000000000000000000000000000008152600401610ef1906129e1565b60405180910390fd5b610f05838383611547565b610f10600082610cc7565b6001600360008573ffffffffffffffffffffffffffffffffffffffff1673ffffffffffffffffffffffffffffffffffffffff1681526020019081526020016000206000828254610f609190612472565b925050819055506001600360008473ffffffffffffffffffffffffffffffffffffffff1673ffffffffffffffffffffffffffffffffffffffff1681526020019081526020016000206000828254610fb79190612a01565b92505081905550816002600083815260200190815260200160002060006101000a81548173ffffffffffffffffffffffffffffffffffffffff021916908373ffffffffffffffffffffffffffffffffffffffff160217905550808273ffffffffffffffffffffffffffffffffffffffff168473ffffffffffffffffffffffffffffffffffffffff167fddf252ad1be2c89b69c2b068fc378daa952ba7f163c4a11628f55a4df523b3ef60405160405180910390a461107683838361154c565b505050565b6001816000016000828254019250508190555050565b600081600001549050919050565b6110b9828260405180602001604052806000815250611551565b5050565b6110c5610cbf565b73ffffffffffffffffffffffffffffffffffffffff166110e36109ad565b73ffffffffffffffffffffffffffffffffffffffff1614611139576040517f08c379a000000000000000000000000000000000000000000000000000000000815260040161113090612a81565b60405180910390fd5b565b6000600760009054906101000a900473ffffffffffffffffffffffffffffffffffffffff16905081600760006101000a81548173ffffffffffffffffffffffffffffffffffffffff021916908373ffffffffffffffffffffffffffffffffffffffff1602179055508173ffffffffffffffffffffffffffffffffffffffff168173ffffffffffffffffffffffffffffffffffffffff167f8be0079c531659141344cd1fd0a4f28419497f9722a3daafe3b4186f6b6457e060405160405180910390a35050565b8173ffffffffffffffffffffffffffffffffffffffff168373ffffffffffffffffffffffffffffffffffffffff160361126f576040517f08c379a000000000000000000000000000000000000000000000000000000000815260040161126690612aed565b60405180910390fd5b80600560008573ffffffffffffffffffffffffffffffffffffffff1673ffffffffffffffffffffffffffffffffffffffff16815260200190815260200160002060008473ffffffffffffffffffffffffffffffffffffffff1673ffffffffffffffffffffffffffffffffffffffff16815260200190815260200160002060006101000a81548160ff0219169083151502179055508173ffffffffffffffffffffffffffffffffffffffff168373ffffffffffffffffffffffffffffffffffffffff167f17307eab39ab6107e8899845ad3d59bd9653f200f220920489ca2b5937696c31836040516113609190611c3d565b60405180910390a3505050565b611378848484610e15565b611384848484846115ac565b6113c3576040517f08c379a00000000000000000000000000000000000000000000000000000000081526004016113ba90612b7f565b60405180910390fd5b50505050565b60606113d482610c74565b60006006600084815260200190815260200160002080546113f49061225c565b80601f01602080910402602001604051908101604052809291908181526020018280546114209061225c565b801561146d5780601f106114425761010080835404028352916020019161146d565b820191906000526020600020905b81548152906001019060200180831161145057829003601f168201915b50505050509050600061147e611733565b905060008151036114935781925050506114d6565b6000825111156114c85780826040516020016114b0929190612bdb565b604051602081830303815290604052925050506114d6565b6114d1846117c5565b925050505b919050565b60008073ffffffffffffffffffffffffffffffffffffffff166002600084815260200190815260200160002060009054906101000a900473ffffffffffffffffffffffffffffffffffffffff1673ffffffffffffffffffffffffffffffffffffffff1614159050919050565b505050565b505050565b61155b838361182d565b61156860008484846115ac565b6115a7576040517f08c379a000000000000000000000000000000000000000000000000000000000815260040161159e90612b7f565b60405180910390fd5b505050565b60006115cd8473ffffffffffffffffffffffffffffffffffffffff16611a06565b15611726578373ffffffffffffffffffffffffffffffffffffffff1663150b7a026115f6610cbf565b8786866040518563ffffffff1660e01b81526004016116189493929190612c54565b6020604051808303816000875af192505050801561165457506040513d601f19601f820116820180604052508101906116519190612cb5565b60015b6116d6573d8060008114611684576040519150601f19603f3d011682016040523d82523d6000602084013e611689565b606091505b5060008151036116ce576040517f08c379a00000000000000000000000000000000000000000000000000000000081526004016116c590612b7f565b60405180910390fd5b805181602001fd5b63150b7a0260e01b7bffffffffffffffffffffffffffffffffffffffffffffffffffffffff1916817bffffffffffffffffffffffffffffffffffffffffffffffffffffffff19161491505061172b565b600190505b949350505050565b6060600980546117429061225c565b80601f016020809104026020016040519081016040528092919081815260200182805461176e9061225c565b80156117bb5780601f10611790576101008083540402835291602001916117bb565b820191906000526020600020905b81548152906001019060200180831161179e57829003601f168201915b5050505050905090565b60606117d082610c74565b60006117da611733565b905060008151116117fa5760405180602001604052806000815250611825565b8061180484611a29565b604051602001611815929190612bdb565b6040516020818303038152906040525b915050919050565b600073ffffffffffffffffffffffffffffffffffffffff168273ffffffffffffffffffffffffffffffffffffffff160361189c576040517f08c379a000000000000000000000000000000000000000000000000000000000815260040161189390612d2e565b60405180910390fd5b6118a5816114db565b156118e5576040517f08c379a00000000000000000000000000000000000000000000000000000000081526004016118dc90612d9a565b60405180910390fd5b6118f160008383611547565b6001600360008473ffffffffffffffffffffffffffffffffffffffff1673ffffffffffffffffffffffffffffffffffffffff16815260200190815260200160002060008282546119419190612a01565b92505081905550816002600083815260200190815260200160002060006101000a81548173ffffffffffffffffffffffffffffffffffffffff021916908373ffffffffffffffffffffffffffffffffffffffff160217905550808273ffffffffffffffffffffffffffffffffffffffff16600073ffffffffffffffffffffffffffffffffffffffff167fddf252ad1be2c89b69c2b068fc378daa952ba7f163c4a11628f55a4df523b3ef60405160405180910390a4611a026000838361154c565b5050565b6000808273ffffffffffffffffffffffffffffffffffffffff163b119050919050565b606060008203611a70576040518060400160405280600181526020017f30000000000000000000000000000000000000000000000000000000000000008152509050611b84565b600082905060005b60008214611aa2578080611a8b90612dba565b915050600a82611a9b9190612e31565b9150611a78565b60008167ffffffffffffffff811115611abe57611abd611ebf565b5b6040519080825280601f01601f191660200182016040528015611af05781602001600182028036833780820191505090505b5090505b60008514611b7d57600182611b099190612472565b9150600a85611b189190612e62565b6030611b249190612a01565b60f81b818381518110611b3a57611b39612e93565b5b60200101907effffffffffffffffffffffffffffffffffffffffffffffffffffffffffffff1916908160001a905350600a85611b769190612e31565b9450611af4565b8093505050505b919050565b6000604051905090565b600080fd5b600080fd5b60007fffffffff0000000000000000000000000000000000000000000000000000000082169050919050565b611bd281611b9d565b8114611bdd57600080fd5b50565b600081359050611bef81611bc9565b92915050565b600060208284031215611c0b57611c0a611b93565b5b6000611c1984828501611be0565b91505092915050565b60008115159050919050565b611c3781611c22565b82525050565b6000602082019050611c526000830184611c2e565b92915050565b600081519050919050565b600082825260208201905092915050565b60005b83811015611c92578082015181840152602081019050611c77565b60008484015250505050565b6000601f19601f8301169050919050565b6000611cba82611c58565b611cc48185611c63565b9350611cd4818560208601611c74565b611cdd81611c9e565b840191505092915050565b60006020820190508181036000830152611d028184611caf565b905092915050565b6000819050919050565b611d1d81611d0a565b8114611d2857600080fd5b50565b600081359050611d3a81611d14565b92915050565b600060208284031215611d5657611d55611b93565b5b6000611d6484828501611d2b565b91505092915050565b600073ffffffffffffffffffffffffffffffffffffffff82169050919050565b6000611d9882611d6d565b9050919050565b611da881611d8d565b82525050565b6000602082019050611dc36000830184611d9f565b92915050565b611dd281611d8d565b8114611ddd57600080fd5b50565b600081359050611def81611dc9565b92915050565b60008060408385031215611e0c57611e0b611b93565b5b6000611e1a85828601611de0565b9250506020611e2b85828601611d2b565b9150509250929050565b600080600060608486031215611e4e57611e4d611b93565b5b6000611e5c86828701611de0565b9350506020611e6d86828701611de0565b9250506040611e7e86828701611d2b565b9150509250925092565b600060208284031215611e9e57611e9d611b93565b5b6000611eac84828501611de0565b91505092915050565b600080fd5b600080fd5b7f4e487b7100000000000000000000000000000000000000000000000000000000600052604160045260246000fd5b611ef782611c9e565b810181811067ffffffffffffffff82111715611f1657611f15611ebf565b5b80604052505050565b6000611f29611b89565b9050611f358282611eee565b919050565b600067ffffffffffffffff821115611f5557611f54611ebf565b5b611f5e82611c9e565b9050602081019050919050565b82818337600083830152505050565b6000611f8d611f8884611f3a565b611f1f565b905082815260208101848484011115611fa957611fa8611eba565b5b611fb4848285611f6b565b509392505050565b600082601f830112611fd157611fd0611eb5565b5b8135611fe1848260208601611f7a565b91505092915050565b60006020828403121561200057611fff611b93565b5b600082013567ffffffffffffffff81111561201e5761201d611b98565b5b61202a84828501611fbc565b91505092915050565b61203c81611d0a565b82525050565b60006020820190506120576000830184612033565b92915050565b61206681611c22565b811461207157600080fd5b50565b6000813590506120838161205d565b92915050565b600080604083850312156120a05761209f611b93565b5b60006120ae85828601611de0565b92505060206120bf85828601612074565b9150509250929050565b600067ffffffffffffffff8211156120e4576120e3611ebf565b5b6120ed82611c9e565b9050602081019050919050565b600061210d612108846120c9565b611f1f565b90508281526020810184848401111561212957612128611eba565b5b612134848285611f6b565b509392505050565b600082601f83011261215157612150611eb5565b5b81356121618482602086016120fa565b91505092915050565b6000806000806080858703121561218457612183611b93565b5b600061219287828801611de0565b94505060206121a387828801611de0565b93505060406121b487828801611d2b565b925050606085013567ffffffffffffffff8111156121d5576121d4611b98565b5b6121e18782880161213c565b91505092959194509250565b6000806040838503121561220457612203611b93565b5b600061221285828601611de0565b925050602061222385828601611de0565b9150509250929050565b7f4e487b7100000000000000000000000000000000000000000000000000000000600052602260045260246000fd5b6000600282049050600182168061227457607f821691505b6020821081036122875761228661222d565b5b50919050565b7f4552433732313a20617070726f76616c20746f2063757272656e74206f776e6560008201527f7200000000000000000000000000000000000000000000000000000000000000602082015250565b60006122e9602183611c63565b91506122f48261228d565b604082019050919050565b60006020820190508181036000830152612318816122dc565b9050919050565b7f4552433732313a20617070726f76652063616c6c6572206973206e6f7420746f60008201527f6b656e206f776e6572206e6f7220617070726f76656420666f7220616c6c0000602082015250565b600061237b603e83611c63565b91506123868261231f565b604082019050919050565b600060208201905081810360008301526123aa8161236e565b9050919050565b7f4552433732313a2063616c6c6572206973206e6f7420746f6b656e206f776e6560008201527f72206e6f7220617070726f766564000000000000000000000000000000000000602082015250565b600061240d602e83611c63565b9150612418826123b1565b604082019050919050565b6000602082019050818103600083015261243c81612400565b9050919050565b7f4e487b7100000000000000000000000000000000000000000000000000000000600052601160045260246000fd5b600061247d82611d0a565b915061248883611d0a565b92508282039050818111156124a05761249f612443565b5b92915050565b60006124b182611d0a565b9150600082036124c4576124c3612443565b5b600182039050919050565b60008190508160005260206000209050919050565b60006020601f8301049050919050565b600082821b905092915050565b6000600883026125317fffffffffffffffffffffffffffffffffffffffffffffffffffffffffffffffff826124f4565b61253b86836124f4565b95508019841693508086168417925050509392505050565b6000819050919050565b600061257861257361256e84611d0a565b612553565b611d0a565b9050919050565b6000819050919050565b6125928361255d565b6125a661259e8261257f565b848454612501565b825550505050565b600090565b6125bb6125ae565b6125c6818484612589565b505050565b5b818110156125ea576125df6000826125b3565b6001810190506125cc565b5050565b601f82111561262f57612600816124cf565b612609846124e4565b81016020851015612618578190505b61262c612624856124e4565b8301826125cb565b50505b505050565b600082821c905092915050565b600061265260001984600802612634565b1980831691505092915050565b600061266b8383612641565b9150826002028217905092915050565b61268482611c58565b67ffffffffffffffff81111561269d5761269c611ebf565b5b6126a7825461225c565b6126b28282856125ee565b600060209050601f8311600181146126e557600084156126d3578287015190505b6126dd858261265f565b865550612745565b601f1984166126f3866124cf565b60005b8281101561271b578489015182556001820191506020850194506020810190506126f6565b868310156127385784890151612734601f891682612641565b8355505b6001600288020188555050505b505050505050565b7f4552433732313a20696e76616c696420746f6b656e2049440000000000000000600082015250565b6000612783601883611c63565b915061278e8261274d565b602082019050919050565b600060208201905081810360008301526127b281612776565b9050919050565b7f4552433732313a2061646472657373207a65726f206973206e6f74206120766160008201527f6c6964206f776e65720000000000000000000000000000000000000000000000602082015250565b6000612815602983611c63565b9150612820826127b9565b604082019050919050565b6000602082019050818103600083015261284481612808565b9050919050565b7f4f776e61626c653a206e6577206f776e657220697320746865207a65726f206160008201527f6464726573730000000000000000000000000000000000000000000000000000602082015250565b60006128a7602683611c63565b91506128b28261284b565b604082019050919050565b600060208201905081810360008301526128d68161289a565b9050919050565b7f4552433732313a207472616e736665722066726f6d20696e636f72726563742060008201527f6f776e6572000000000000000000000000000000000000000000000000000000602082015250565b6000612939602583611c63565b9150612944826128dd565b604082019050919050565b600060208201905081810360008301526129688161292c565b9050919050565b7f4552433732313a207472616e7366657220746f20746865207a65726f2061646460008201527f7265737300000000000000000000000000000000000000000000000000000000602082015250565b60006129cb602483611c63565b91506129d68261296f565b604082019050919050565b600060208201905081810360008301526129fa816129be565b9050919050565b6000612a0c82611d0a565b9150612a1783611d0a565b9250828201905080821115612a2f57612a2e612443565b5b92915050565b7f4f776e61626c653a2063616c6c6572206973206e6f7420746865206f776e6572600082015250565b6000612a6b602083611c63565b9150612a7682612a35565b602082019050919050565b60006020820190508181036000830152612a9a81612a5e565b9050919050565b7f4552433732313a20617070726f766520746f2063616c6c657200000000000000600082015250565b6000612ad7601983611c63565b9150612ae282612aa1565b602082019050919050565b60006020820190508181036000830152612b0681612aca565b9050919050565b7f4552433732313a207472616e7366657220746f206e6f6e20455243373231526560008201527f63656976657220696d706c656d656e7465720000000000000000000000000000602082015250565b6000612b69603283611c63565b9150612b7482612b0d565b604082019050919050565b60006020820190508181036000830152612b9881612b5c565b9050919050565b600081905092915050565b6000612bb582611c58565b612bbf8185612b9f565b9350612bcf818560208601611c74565b80840191505092915050565b6000612be78285612baa565b9150612bf38284612baa565b91508190509392505050565b600081519050919050565b600082825260208201905092915050565b6000612c2682612bff565b612c308185612c0a565b9350612c40818560208601611c74565b612c4981611c9e565b840191505092915050565b6000608082019050612c696000830187611d9f565b612c766020830186611d9f565b612c836040830185612033565b8181036060830152612c958184612c1b565b905095945050505050565b600081519050612caf81611bc9565b92915050565b600060208284031215612ccb57612cca611b93565b5b6000612cd984828501612ca0565b91505092915050565b7f4552433732313a206d696e7420746f20746865207a65726f2061646472657373600082015250565b6000612d18602083611c63565b9150612d2382612ce2565b602082019050919050565b60006020820190508181036000830152612d4781612d0b565b9050919050565b7f4552433732313a20746f6b656e20616c7265616479206d696e74656400000000600082015250565b6000612d84601c83611c63565b9150612d8f82612d4e565b602082019050919050565b60006020820190508181036000830152612db381612d77565b9050919050565b6000612dc582611d0a565b91507fffffffffffffffffffffffffffffffffffffffffffffffffffffffffffffffff8203612df757612df6612443565b5b600182019050919050565b7f4e487b7100000000000000000000000000000000000000000000000000000000600052601260045260246000fd5b6000612e3c82611d0a565b9150612e4783611d0a565b925082612e5757612e56612e02565b5b828204905092915050565b6000612e6d82611d0a565b9150612e7883611d0a565b925082612e8857612e87612e02565b5b828206905092915050565b7f4e487b7100000000000000000000000000000000000000000000000000000000600052603260045260246000fdfea264697066735822122091f09932f9d5855f45286070b915b977ad87d3ecac9ec9a0546ea8fe71e1f4ab64736f6c6343000811003368747470733a2f2f7261772e67697468756275736572636f6e74656e742e636f6d2f61766364736c642f636f64652d61732d6172742f6d61696e2f70726f7465696e2f6d657461646174612e6a736f6e3f",
  "devdoc": {
    "kind": "dev",
    "methods": {
      "approve(address,uint256)": {
        "details": "See {IERC721-approve}."
      },
      "balanceOf(address)": {
        "details": "See {IERC721-balanceOf}."
      },
      "getApproved(uint256)": {
        "details": "See {IERC721-getApproved}."
      },
      "isApprovedForAll(address,address)": {
        "details": "See {IERC721-isApprovedForAll}."
      },
      "name()": {
        "details": "See {IERC721Metadata-name}."
      },
      "owner()": {
        "details": "Returns the address of the current owner."
      },
      "ownerOf(uint256)": {
        "details": "See {IERC721-ownerOf}."
      },
      "renounceOwnership()": {
        "details": "Leaves the contract without owner. It will not be possible to call `onlyOwner` functions anymore. Can only be called by the current owner. NOTE: Renouncing ownership will leave the contract without an owner, thereby removing any functionality that is only available to the owner."
      },
      "safeTransferFrom(address,address,uint256)": {
        "details": "See {IERC721-safeTransferFrom}."
      },
      "safeTransferFrom(address,address,uint256,bytes)": {
        "details": "See {IERC721-safeTransferFrom}."
      },
      "setApprovalForAll(address,bool)": {
        "details": "See {IERC721-setApprovalForAll}."
      },
      "supportsInterface(bytes4)": {
        "details": "See {IERC165-supportsInterface}."
      },
      "symbol()": {
        "details": "See {IERC721Metadata-symbol}."
      },
      "transferFrom(address,address,uint256)": {
        "details": "See {IERC721-transferFrom}."
      },
      "transferOwnership(address)": {
        "details": "Transfers ownership of the contract to a new account (`newOwner`). Can only be called by the current owner."
      }
    },
    "version": 1
  },
  "userdoc": {
    "kind": "user",
    "methods": {},
    "version": 1
  },
  "storageLayout": {
    "storage": [
      {
        "astId": 138,
        "contract": "contracts/Protein.sol:Protein",
        "label": "_name",
        "offset": 0,
        "slot": "0",
        "type": "t_string_storage"
      },
      {
        "astId": 140,
        "contract": "contracts/Protein.sol:Protein",
        "label": "_symbol",
        "offset": 0,
        "slot": "1",
        "type": "t_string_storage"
      },
      {
        "astId": 144,
        "contract": "contracts/Protein.sol:Protein",
        "label": "_owners",
        "offset": 0,
        "slot": "2",
        "type": "t_mapping(t_uint256,t_address)"
      },
      {
        "astId": 148,
        "contract": "contracts/Protein.sol:Protein",
        "label": "_balances",
        "offset": 0,
        "slot": "3",
        "type": "t_mapping(t_address,t_uint256)"
      },
      {
        "astId": 152,
        "contract": "contracts/Protein.sol:Protein",
        "label": "_tokenApprovals",
        "offset": 0,
        "slot": "4",
        "type": "t_mapping(t_uint256,t_address)"
      },
      {
        "astId": 158,
        "contract": "contracts/Protein.sol:Protein",
        "label": "_operatorApprovals",
        "offset": 0,
        "slot": "5",
        "type": "t_mapping(t_address,t_mapping(t_address,t_bool))"
      },
      {
        "astId": 1126,
        "contract": "contracts/Protein.sol:Protein",
        "label": "_tokenURIs",
        "offset": 0,
        "slot": "6",
        "type": "t_mapping(t_uint256,t_string_storage)"
      },
      {
        "astId": 7,
        "contract": "contracts/Protein.sol:Protein",
        "label": "_owner",
        "offset": 0,
        "slot": "7",
        "type": "t_address"
      },
      {
        "astId": 1937,
        "contract": "contracts/Protein.sol:Protein",
        "label": "_tokenIdCounter",
        "offset": 0,
        "slot": "8",
        "type": "t_struct(Counter)1588_storage"
      },
      {
        "astId": 1940,
        "contract": "contracts/Protein.sol:Protein",
        "label": "baseUrl",
        "offset": 0,
        "slot": "9",
        "type": "t_string_storage"
      }
    ],
    "types": {
      "t_address": {
        "encoding": "inplace",
        "label": "address",
        "numberOfBytes": "20"
      },
      "t_bool": {
        "encoding": "inplace",
        "label": "bool",
        "numberOfBytes": "1"
      },
      "t_mapping(t_address,t_bool)": {
        "encoding": "mapping",
        "key": "t_address",
        "label": "mapping(address => bool)",
        "numberOfBytes": "32",
        "value": "t_bool"
      },
      "t_mapping(t_address,t_mapping(t_address,t_bool))": {
        "encoding": "mapping",
        "key": "t_address",
        "label": "mapping(address => mapping(address => bool))",
        "numberOfBytes": "32",
        "value": "t_mapping(t_address,t_bool)"
      },
      "t_mapping(t_address,t_uint256)": {
        "encoding": "mapping",
        "key": "t_address",
        "label": "mapping(address => uint256)",
        "numberOfBytes": "32",
        "value": "t_uint256"
      },
      "t_mapping(t_uint256,t_address)": {
        "encoding": "mapping",
        "key": "t_uint256",
        "label": "mapping(uint256 => address)",
        "numberOfBytes": "32",
        "value": "t_address"
      },
      "t_mapping(t_uint256,t_string_storage)": {
        "encoding": "mapping",
        "key": "t_uint256",
        "label": "mapping(uint256 => string)",
        "numberOfBytes": "32",
        "value": "t_string_storage"
      },
      "t_string_storage": {
        "encoding": "bytes",
        "label": "string",
        "numberOfBytes": "32"
      },
      "t_struct(Counter)1588_storage": {
        "encoding": "inplace",
        "label": "struct Counters.Counter",
        "members": [
          {
            "astId": 1587,
            "contract": "contracts/Protein.sol:Protein",
            "label": "_value",
            "offset": 0,
            "slot": "0",
            "type": "t_uint256"
          }
        ],
        "numberOfBytes": "32"
      },
      "t_uint256": {
        "encoding": "inplace",
        "label": "uint256",
        "numberOfBytes": "32"
      }
    }
  }
}